{
  "contractName": "SupplyChain",
  "abi": [
    {
      "inputs": [],
      "stateMutability": "payable",
      "type": "constructor",
      "payable": true
    },
    {
      "anonymous": false,
      "inputs": [
        {
          "indexed": false,
          "internalType": "uint256",
          "name": "uid",
          "type": "uint256"
        }
      ],
      "name": "Manufactured",
      "type": "event"
    },
    {
      "anonymous": false,
      "inputs": [
        {
          "indexed": true,
          "internalType": "address",
          "name": "_account",
          "type": "address"
        }
      ],
      "name": "ManufacturerAdded",
      "type": "event"
    },
    {
      "anonymous": false,
      "inputs": [
        {
          "indexed": false,
          "internalType": "uint256",
          "name": "uid",
          "type": "uint256"
        }
      ],
      "name": "PurchasedByCustomer",
      "type": "event"
    },
    {
      "anonymous": false,
      "inputs": [
        {
          "indexed": false,
          "internalType": "uint256",
          "name": "uid",
          "type": "uint256"
        }
      ],
      "name": "PurchasedByThirdParty",
      "type": "event"
    },
    {
      "anonymous": false,
      "inputs": [
        {
          "indexed": false,
          "internalType": "uint256",
          "name": "uid",
          "type": "uint256"
        }
      ],
      "name": "ReceivedByCustomer",
      "type": "event"
    },
    {
      "anonymous": false,
      "inputs": [
        {
          "indexed": false,
          "internalType": "uint256",
          "name": "uid",
          "type": "uint256"
        }
      ],
      "name": "ReceivedByDeliveryHub",
      "type": "event"
    },
    {
      "anonymous": false,
      "inputs": [
        {
          "indexed": false,
          "internalType": "uint256",
          "name": "uid",
          "type": "uint256"
        }
      ],
      "name": "ReceivedByThirdParty",
      "type": "event"
    },
    {
      "anonymous": false,
      "inputs": [
        {
          "indexed": false,
          "internalType": "uint256",
          "name": "uid",
          "type": "uint256"
        }
      ],
      "name": "ShippedByDeliveryHub",
      "type": "event"
    },
    {
      "anonymous": false,
      "inputs": [
        {
          "indexed": false,
          "internalType": "uint256",
          "name": "uid",
          "type": "uint256"
        }
      ],
      "name": "ShippedByManufacturer",
      "type": "event"
    },
    {
      "anonymous": false,
      "inputs": [
        {
          "indexed": false,
          "internalType": "uint256",
          "name": "uid",
          "type": "uint256"
        }
      ],
      "name": "ShippedByThirdParty",
      "type": "event"
    },
    {
      "inputs": [],
      "name": "uid",
      "outputs": [
        {
          "internalType": "uint256",
          "name": "",
          "type": "uint256"
        }
      ],
      "stateMutability": "view",
      "type": "function",
      "constant": true
    },
    {
      "inputs": [
        {
          "internalType": "address",
          "name": "_account",
          "type": "address"
        }
      ],
      "name": "hasManufacturerRole",
      "outputs": [
        {
          "internalType": "bool",
          "name": "",
          "type": "bool"
        }
      ],
      "stateMutability": "view",
      "type": "function",
      "constant": true
    },
    {
      "inputs": [
        {
          "internalType": "address",
          "name": "_account",
          "type": "address"
        }
      ],
      "name": "addManufacturerRole",
      "outputs": [],
      "stateMutability": "nonpayable",
      "type": "function"
    },
    {
      "inputs": [
        {
          "internalType": "address",
          "name": "_account",
          "type": "address"
        }
      ],
      "name": "hasThirdPartyRole",
      "outputs": [
        {
          "internalType": "bool",
          "name": "",
          "type": "bool"
        }
      ],
      "stateMutability": "view",
      "type": "function",
      "constant": true
    },
    {
      "inputs": [
        {
          "internalType": "address",
          "name": "_account",
          "type": "address"
        }
      ],
      "name": "addThirdPartyRole",
      "outputs": [],
      "stateMutability": "nonpayable",
      "type": "function"
    },
    {
      "inputs": [
        {
          "internalType": "address",
          "name": "_account",
          "type": "address"
        }
      ],
      "name": "hasDeliveryHubRole",
      "outputs": [
        {
          "internalType": "bool",
          "name": "",
          "type": "bool"
        }
      ],
      "stateMutability": "view",
      "type": "function",
      "constant": true
    },
    {
      "inputs": [
        {
          "internalType": "address",
          "name": "_account",
          "type": "address"
        }
      ],
      "name": "addDeliveryHubRole",
      "outputs": [],
      "stateMutability": "nonpayable",
      "type": "function"
    },
    {
      "inputs": [
        {
          "internalType": "address",
          "name": "_account",
          "type": "address"
        }
      ],
      "name": "hasCustomerRole",
      "outputs": [
        {
          "internalType": "bool",
          "name": "",
          "type": "bool"
        }
      ],
      "stateMutability": "view",
      "type": "function",
      "constant": true
    },
    {
      "inputs": [
        {
          "internalType": "address",
          "name": "_account",
          "type": "address"
        }
      ],
      "name": "addCustomerRole",
      "outputs": [],
      "stateMutability": "nonpayable",
      "type": "function"
    },
    {
      "inputs": [
        {
          "internalType": "string",
          "name": "manufacturerName",
          "type": "string"
        },
        {
          "internalType": "string",
          "name": "manufacturerDetails",
          "type": "string"
        },
        {
          "internalType": "string",
          "name": "manufacturerLongitude",
          "type": "string"
        },
        {
          "internalType": "string",
          "name": "manufacturerLatitude",
          "type": "string"
        },
        {
          "internalType": "string",
          "name": "productName",
          "type": "string"
        },
        {
          "internalType": "uint256",
          "name": "productCode",
          "type": "uint256"
        },
        {
          "internalType": "uint256",
          "name": "productPrice",
          "type": "uint256"
        },
        {
          "internalType": "string",
          "name": "productCategory",
          "type": "string"
        }
      ],
      "name": "manufactureProduct",
      "outputs": [],
      "stateMutability": "nonpayable",
      "type": "function"
    },
    {
      "inputs": [
        {
          "internalType": "uint256",
          "name": "_uid",
          "type": "uint256"
        }
      ],
      "name": "purchaseByThirdParty",
      "outputs": [],
      "stateMutability": "nonpayable",
      "type": "function"
    },
    {
      "inputs": [
        {
          "internalType": "uint256",
          "name": "_uid",
          "type": "uint256"
        }
      ],
      "name": "shipToThirdParty",
      "outputs": [],
      "stateMutability": "nonpayable",
      "type": "function"
    },
    {
      "inputs": [
        {
          "internalType": "uint256",
          "name": "_uid",
          "type": "uint256"
        },
        {
          "internalType": "string",
          "name": "thirdPartyLongitude",
          "type": "string"
        },
        {
          "internalType": "string",
          "name": "thirdPartyLatitude",
          "type": "string"
        }
      ],
      "name": "receiveByThirdParty",
      "outputs": [],
      "stateMutability": "nonpayable",
      "type": "function"
    },
    {
      "inputs": [
        {
          "internalType": "uint256",
          "name": "_uid",
          "type": "uint256"
        }
      ],
      "name": "purchaseByCustomer",
      "outputs": [],
      "stateMutability": "nonpayable",
      "type": "function"
    },
    {
      "inputs": [
        {
          "internalType": "uint256",
          "name": "_uid",
          "type": "uint256"
        }
      ],
      "name": "shipByThirdParty",
      "outputs": [],
      "stateMutability": "nonpayable",
      "type": "function"
    },
    {
      "inputs": [
        {
          "internalType": "uint256",
          "name": "_uid",
          "type": "uint256"
        },
        {
          "internalType": "string",
          "name": "deliveryHubLongitude",
          "type": "string"
        },
        {
          "internalType": "string",
          "name": "deliveryHubLatitude",
          "type": "string"
        }
      ],
      "name": "receiveByDeliveryHub",
      "outputs": [],
      "stateMutability": "nonpayable",
      "type": "function"
    },
    {
      "inputs": [
        {
          "internalType": "uint256",
          "name": "_uid",
          "type": "uint256"
        }
      ],
      "name": "shipByDeliveryHub",
      "outputs": [],
      "stateMutability": "nonpayable",
      "type": "function"
    },
    {
      "inputs": [
        {
          "internalType": "uint256",
          "name": "_uid",
          "type": "uint256"
        }
      ],
      "name": "receiveByCustomer",
      "outputs": [],
      "stateMutability": "nonpayable",
      "type": "function"
    },
    {
      "inputs": [
        {
          "internalType": "uint256",
          "name": "_uid",
          "type": "uint256"
        },
        {
          "internalType": "string",
          "name": "_type",
          "type": "string"
        },
        {
          "internalType": "uint256",
          "name": "i",
          "type": "uint256"
        }
      ],
      "name": "fetchProductPart1",
      "outputs": [
        {
          "internalType": "uint256",
          "name": "",
          "type": "uint256"
        },
        {
          "internalType": "uint256",
          "name": "",
          "type": "uint256"
        },
        {
          "internalType": "address",
          "name": "",
          "type": "address"
        },
        {
          "internalType": "address",
          "name": "",
          "type": "address"
        },
        {
          "internalType": "string",
          "name": "",
          "type": "string"
        },
        {
          "internalType": "string",
          "name": "",
          "type": "string"
        },
        {
          "internalType": "string",
          "name": "",
          "type": "string"
        },
        {
          "internalType": "string",
          "name": "",
          "type": "string"
        }
      ],
      "stateMutability": "view",
      "type": "function",
      "constant": true
    },
    {
      "inputs": [
        {
          "internalType": "uint256",
          "name": "_uid",
          "type": "uint256"
        },
        {
          "internalType": "string",
          "name": "_type",
          "type": "string"
        },
        {
          "internalType": "uint256",
          "name": "i",
          "type": "uint256"
        }
      ],
      "name": "fetchProductPart2",
      "outputs": [
        {
          "internalType": "uint256",
          "name": "",
          "type": "uint256"
        },
        {
          "internalType": "string",
          "name": "",
          "type": "string"
        },
        {
          "internalType": "uint256",
          "name": "",
          "type": "uint256"
        },
        {
          "internalType": "uint256",
          "name": "",
          "type": "uint256"
        },
        {
          "internalType": "string",
          "name": "",
          "type": "string"
        },
        {
          "internalType": "enum Structure.State",
          "name": "",
          "type": "uint8"
        },
        {
          "internalType": "address",
          "name": "",
          "type": "address"
        },
        {
          "internalType": "string",
          "name": "",
          "type": "string"
        }
      ],
      "stateMutability": "view",
      "type": "function",
      "constant": true
    },
    {
      "inputs": [
        {
          "internalType": "uint256",
          "name": "_uid",
          "type": "uint256"
        },
        {
          "internalType": "string",
          "name": "_type",
          "type": "string"
        },
        {
          "internalType": "uint256",
          "name": "i",
          "type": "uint256"
        }
      ],
      "name": "fetchProductPart3",
      "outputs": [
        {
          "internalType": "string",
          "name": "",
          "type": "string"
        },
        {
          "internalType": "address",
          "name": "",
          "type": "address"
        },
        {
          "internalType": "string",
          "name": "",
          "type": "string"
        },
        {
          "internalType": "string",
          "name": "",
          "type": "string"
        },
        {
          "internalType": "address",
          "name": "",
          "type": "address"
        },
        {
          "internalType": "string",
          "name": "",
          "type": "string"
        }
      ],
      "stateMutability": "view",
      "type": "function",
      "constant": true
    },
    {
      "inputs": [],
      "name": "fetchProductCount",
      "outputs": [
        {
          "internalType": "uint256",
          "name": "",
          "type": "uint256"
        }
      ],
      "stateMutability": "view",
      "type": "function",
      "constant": true
    },
    {
      "inputs": [
        {
          "internalType": "uint256",
          "name": "_uid",
          "type": "uint256"
        }
      ],
      "name": "fetchProductHistoryLength",
      "outputs": [
        {
          "internalType": "uint256",
          "name": "",
          "type": "uint256"
        }
      ],
      "stateMutability": "view",
      "type": "function",
      "constant": true
    },
    {
      "inputs": [
        {
          "internalType": "uint256",
          "name": "_uid",
          "type": "uint256"
        }
      ],
      "name": "fetchProductState",
      "outputs": [
        {
          "internalType": "enum Structure.State",
          "name": "",
          "type": "uint8"
        }
      ],
      "stateMutability": "view",
      "type": "function",
      "constant": true
    },
    {
      "inputs": [
        {
          "internalType": "string",
          "name": "tran",
          "type": "string"
        }
      ],
      "name": "setTransactionHashOnManufacture",
      "outputs": [],
      "stateMutability": "nonpayable",
      "type": "function"
    },
    {
      "inputs": [
        {
          "internalType": "uint256",
          "name": "_uid",
          "type": "uint256"
        },
        {
          "internalType": "string",
          "name": "tran",
          "type": "string"
        }
      ],
      "name": "setTransactionHash",
      "outputs": [],
      "stateMutability": "nonpayable",
      "type": "function"
    }
  ],
  "bytecode": "0x6080604052600280546001600160a01b031916331790556001808055600055613b748061002d6000396000f3fe608060405234801561001057600080fd5b506004361061018d5760003560e01c8063786ea161116100de578063d44bebcc11610097578063ee707c1e11610071578063ee707c1e146103c7578063f16791b3146103da578063f4121b67146103e2578063f514ce36146103f557600080fd5b8063d44bebcc14610367578063e2f1fe141461037a578063e55128ea146103b457600080fd5b8063786ea161146102e35780638290f859146102f65780638eee90ea1461030957806398c958891461031c578063b843bdee14610341578063cd2885e01461035457600080fd5b80635212e5101161014b5780636cf07e24116101255780636cf07e24146102835780636f1fe8d7146102965780637217eb2e146102bd57806372df397e146102d057600080fd5b80635212e510146102365780636000ada114610249578063658db4971461025c57600080fd5b80623375b714610192578063024edf9a146101a75780630a036e25146101cf5780633334529e146101e2578063405ba7ef146101f5578063453dd4af14610223575b600080fd5b6101a56101a03660046135ff565b6103fe565b005b6101ba6101b5366004613709565b610a1c565b60405190151581526020015b60405180910390f35b6101a56101dd366004613739565b610a57565b6101a56101f0366004613752565b610dad565b610215610203366004613739565b60009081526004602052604090205490565b6040519081526020016101c6565b6101a5610231366004613709565b61119e565b6101a5610244366004613709565b6111ee565b6101ba610257366004613709565b61123a565b61026f61026a3660046137bf565b61126e565b6040516101c698979695949392919061385c565b6101a5610291366004613739565b611602565b6102a96102a43660046137bf565b6119ba565b6040516101c6989796959493929190613919565b6101a56102cb366004613739565b611c33565b6101a56102de366004613739565b611f9f565b6101a56102f1366004613983565b612331565b6101a5610304366004613709565b61238b565b6101a5610317366004613752565b6123d5565b61032f61032a3660046137bf565b6127a7565b6040516101c6969594939291906139ca565b6101a561034f366004613739565b612b2e565b6101ba610362366004613709565b612e98565b6101ba610375366004613709565b612ed1565b6103a7610388366004613739565b600090815260036020526040902060020154600160a01b900460ff1690565b6040516101c69190613a3c565b6101a56103c2366004613a50565b612f0b565b6101a56103d5366004613739565b612f98565b600054610215565b6101a56103f0366004613709565b61330c565b61021560005481565b6104073361123a565b61041057600080fd5b60005461041b61335a565b600154602080830191909152828252608080830180519092018c9052815160409081018c905282516060018b9052825190910189905281514260a090910152339083018190529051526104b08160a0810180516000908190528151606060209182018190529251604090810184905260e085018051849052805190920184905290510182905261010083015261012090910152565b6000606082810182815260c0840180518a9052805160209081018a9052815160409081018a90529151909301879052858452600383529283902084518155918401516001830155918301516002820180546001600160a01b039092166001600160a01b03198316811782559351859490926001600160a81b03191617600160a01b836008811115610543576105436138e1565b0217905550608082015180516003830180546001600160a01b0319166001600160a01b0390921691909117815560208083015180516105889260048701920190613448565b50604082015180516105a4916002840191602090910190613448565b50606082015180516105c0916003840191602090910190613448565b50608082015180516105dc916004840191602090910190613448565b5060a0918201516005919091015582015180516009830180546001600160a01b0319166001600160a01b03909216919091178155602080830151805161062892600a8701920190613448565b5060408201518051610644916002840191602090910190613448565b50505060c082015180518051600c84019161066491839160200190613448565b50602082810151600183015560408301516002830155606083015180516106919260038501920190613448565b50505060e082015180516010830180546001600160a01b0319166001600160a01b0390921691909117815560208083015180516106d49260118701920190613448565b50604082015180516106f0916002840191602090910190613448565b5050506101008201516013820180546001600160a01b0319166001600160a01b039092169190911790556101208201518051610736916014840191602090910190613448565b505050600082815260046020908152604080832080546001808201835591855293839020855160159095020193845591840151918301919091558201516002820180546001600160a01b031981166001600160a01b03909316928317825560608501518594939092916001600160a81b03191617600160a01b8360088111156107c1576107c16138e1565b0217905550608082015180516003830180546001600160a01b0319166001600160a01b0390921691909117815560208083015180516108069260048701920190613448565b5060408201518051610822916002840191602090910190613448565b506060820151805161083e916003840191602090910190613448565b506080820151805161085a916004840191602090910190613448565b5060a0918201516005919091015582015180516009830180546001600160a01b0319166001600160a01b0390921691909117815560208083015180516108a692600a8701920190613448565b50604082015180516108c2916002840191602090910190613448565b50505060c082015180518051600c8401916108e291839160200190613448565b506020828101516001830155604083015160028301556060830151805161090f9260038501920190613448565b50505060e082015180516010830180546001600160a01b0319166001600160a01b0390921691909117815560208083015180516109529260118701920190613448565b506040820151805161096e916002840191602090910190613448565b5050506101008201516013820180546001600160a01b0319166001600160a01b0390921691909117905561012082015180516109b4916014840191602090910190613448565b505060018054915060006109c783613aa3565b90915550506000546109da906001613abe565b6000556040518281527fd29d8a68ca7c8c74be5579719d445aabfe230ed6e6a83aff475a663500eb76099060200160405180910390a150505050505050505050565b60006001600160a01b038216610a3157600080fd5b506001600160a01b03166000908152600560205260409020546301000000900460ff1690565b600081815260036020819052604090912001546001600160a01b0316338114610a7f57600080fd5b610a883361123a565b610a9157600080fd5b60008281526003602081815260408084206002808201805460ff60a01b1916600160a11b178155600485529286209484528454600181810187559587529390952081546015909402019283558381015493830193909355805493820180546001600160a01b031981166001600160a01b03909616958617825591549394929360ff600160a01b91829004169391926001600160a81b03191690911790836008811115610b3f57610b3f6138e1565b02179055506003828101805491830180546001600160a01b0319166001600160a01b039093169290921782556004808501805492939291850191610b8290613ad6565b610b8d9291906134cc565b506002820181600201908054610ba290613ad6565b610bad9291906134cc565b506003820181600301908054610bc290613ad6565b610bcd9291906134cc565b506004820181600401908054610be290613ad6565b610bed9291906134cc565b506005918201549101556009828101805491830180546001600160a01b0319166001600160a01b03909316929092178255600a808501805492939291850191610c3590613ad6565b610c409291906134cc565b506002820181600201908054610c5590613ad6565b610c609291906134cc565b505050600c820181600c016000820181600001908054610c7f90613ad6565b610c8a9291906134cc565b5060018201548160010155600282015481600201556003820181600301908054610cb390613ad6565b610cbe9291906134cc565b5050506010828101805491830180546001600160a01b0319166001600160a01b039093169290921782556011808501805492939291850191610cff90613ad6565b610d0a9291906134cc565b506002820181600201908054610d1f90613ad6565b610d2a9291906134cc565b50505060138281015490820180546001600160a01b0319166001600160a01b039092169190911790556014808301805491830191610d6790613ad6565b610d729291906134cc565b50506040518381527f25727bef8a186dd95a062151451f2d651551b53124c18208d7653b1217ae31ba91506020015b60405180910390a15050565b826002600082815260036020526040902060020154600160a01b900460ff166008811115610ddd57610ddd6138e1565b14610de757600080fd5b6000848152600360205260409020600901546001600160a01b0316338114610e0e57600080fd5b610e1733612e98565b610e2057600080fd5b60008581526003602090815260409091206002810180546001600160a01b031916331790558551610e5992600a90920191870190613448565b5060008581526003602090815260409091208451610e7f92600b90920191860190613448565b5060008581526003602081815260408084206002808201805460ff60a01b1916600360a01b178155600485529286209484528454600181810187559587529390952081546015909402019283558381015493830193909355805493820180546001600160a01b031981166001600160a01b03909616958617825591549394929360ff600160a01b91829004169391926001600160a81b03191690911790836008811115610f2e57610f2e6138e1565b02179055506003828101805491830180546001600160a01b0319166001600160a01b039093169290921782556004808501805492939291850191610f7190613ad6565b610f7c9291906134cc565b506002820181600201908054610f9190613ad6565b610f9c9291906134cc565b506003820181600301908054610fb190613ad6565b610fbc9291906134cc565b506004820181600401908054610fd190613ad6565b610fdc9291906134cc565b506005918201549101556009828101805491830180546001600160a01b0319166001600160a01b03909316929092178255600a80850180549293929185019161102490613ad6565b61102f9291906134cc565b50600282018160020190805461104490613ad6565b61104f9291906134cc565b505050600c820181600c01600082018160000190805461106e90613ad6565b6110799291906134cc565b50600182015481600101556002820154816002015560038201816003019080546110a290613ad6565b6110ad9291906134cc565b5050506010828101805491830180546001600160a01b0319166001600160a01b0390931692909217825560118085018054929392918501916110ee90613ad6565b6110f99291906134cc565b50600282018160020190805461110e90613ad6565b6111199291906134cc565b50505060138281015490820180546001600160a01b0319166001600160a01b03909216919091179055601480830180549183019161115690613ad6565b6111619291906134cc565b50506040518681527fa22971300ba7d9ca2113cf57c3238cde86a32cfba0c31a13ad86a23bde3facf2915060200160405180910390a15050505050565b6001600160a01b0381166111b157600080fd5b6111ba81612ed1565b156111c457600080fd5b6001600160a01b03166000908152600560205260409020805463ff00000019166301000000179055565b6001600160a01b03811661120157600080fd5b61120a81612e98565b1561121457600080fd5b6001600160a01b03166000908152600560205260409020805461ff001916610100179055565b60006001600160a01b03821661124f57600080fd5b506001600160a01b031660009081526005602052604090205460ff1690565b60008381526003602052604081205481908190819060609081908190819061129557600080fd5b60008b815260036020908152604091829020825180840190935260078352661c1c9bd91d58dd60ca1b928201929092528b51908c01207f36a4a183f82db747ab399ca476ab84cc3def6abe3ac63748d03b4584af38d0571415611302575060008b81526003602052604090205b604080518082019091526007815266686973746f727960c81b6020918201528b51908c01207f5cb4ee416d23b95cd5367c15d6b361ec02394b3d48d629418b0e5e7eda675858141561137f5760008c815260046020526040902080548b90811061136e5761136e613b11565b906000526020600020906015020190505b80546001820154600283015460038401546004850180546001600160a01b03938416939092169160058701906006880190600789019084906113c090613ad6565b80601f01602080910402602001604051908101604052809291908181526020018280546113ec90613ad6565b80156114395780601f1061140e57610100808354040283529160200191611439565b820191906000526020600020905b81548152906001019060200180831161141c57829003601f168201915b5050505050935082805461144c90613ad6565b80601f016020809104026020016040519081016040528092919081815260200182805461147890613ad6565b80156114c55780601f1061149a576101008083540402835291602001916114c5565b820191906000526020600020905b8154815290600101906020018083116114a857829003601f168201915b505050505092508180546114d890613ad6565b80601f016020809104026020016040519081016040528092919081815260200182805461150490613ad6565b80156115515780601f1061152657610100808354040283529160200191611551565b820191906000526020600020905b81548152906001019060200180831161153457829003601f168201915b5050505050915080805461156490613ad6565b80601f016020809104026020016040519081016040528092919081815260200182805461159090613ad6565b80156115dd5780601f106115b2576101008083540402835291602001916115dd565b820191906000526020600020905b8154815290600101906020018083116115c057829003601f168201915b5050505050905098509850985098509850985098509850509397509397509397509397565b806006600082815260036020526040902060020154600160a01b900460ff166008811115611632576116326138e1565b1461163c57600080fd5b6000828152600360205260409020600201546001600160a01b031633811461166357600080fd5b6000838152600360205260409020601001546001600160a01b031633811461168a57600080fd5b61169333612ed1565b61169c57600080fd5b60008481526003602081815260408084206002808201805460ff60a01b1916600760a01b178155600485529286209484528454600181810187559587529390952081546015909402019283558381015493830193909355805493820180546001600160a01b031981166001600160a01b03909616958617825591549394929360ff600160a01b91829004169391926001600160a81b0319169091179083600881111561174a5761174a6138e1565b02179055506003828101805491830180546001600160a01b0319166001600160a01b03909316929092178255600480850180549293929185019161178d90613ad6565b6117989291906134cc565b5060028201816002019080546117ad90613ad6565b6117b89291906134cc565b5060038201816003019080546117cd90613ad6565b6117d89291906134cc565b5060048201816004019080546117ed90613ad6565b6117f89291906134cc565b506005918201549101556009828101805491830180546001600160a01b0319166001600160a01b03909316929092178255600a80850180549293929185019161184090613ad6565b61184b9291906134cc565b50600282018160020190805461186090613ad6565b61186b9291906134cc565b505050600c820181600c01600082018160000190805461188a90613ad6565b6118959291906134cc565b50600182015481600101556002820154816002015560038201816003019080546118be90613ad6565b6118c99291906134cc565b5050506010828101805491830180546001600160a01b0319166001600160a01b03909316929092178255601180850180549293929185019161190a90613ad6565b6119159291906134cc565b50600282018160020190805461192a90613ad6565b6119359291906134cc565b50505060138281015490820180546001600160a01b0319166001600160a01b03909216919091179055601480830180549183019161197290613ad6565b61197d9291906134cc565b50506040518581527f9a96442e96ac96ba57e48273f290bf3bb9c6b0b2c86843cc4bf2353119918fdf91506020015b60405180910390a150505050565b6000838152600360205260408120546060908290819083908290819083906119e157600080fd5b60008b815260036020908152604091829020825180840190935260078352661c1c9bd91d58dd60ca1b928201929092528b51908c01207f36a4a183f82db747ab399ca476ab84cc3def6abe3ac63748d03b4584af38d0571415611a4e575060008b81526003602052604090205b604080518082019091526007815266686973746f727960c81b6020918201528b51908c01207f5cb4ee416d23b95cd5367c15d6b361ec02394b3d48d629418b0e5e7eda6758581415611acb5760008c815260046020526040902080548b908110611aba57611aba613b11565b906000526020600020906015020190505b6008810154600d820154600e83015460028401546009850154600c8601805490949392600f880192600160a01b90910460ff16916001600160a01b0390911690600a8901908790611b1b90613ad6565b80601f0160208091040260200160405190810160405280929190818152602001828054611b4790613ad6565b8015611b945780601f10611b6957610100808354040283529160200191611b94565b820191906000526020600020905b815481529060010190602001808311611b7757829003601f168201915b50505050509650838054611ba790613ad6565b80601f0160208091040260200160405190810160405280929190818152602001828054611bd390613ad6565b8015611c205780601f10611bf557610100808354040283529160200191611c20565b820191906000526020600020905b815481529060010190602001808311611c0357829003601f168201915b5050505050935080805461156490613ad6565b806003600082815260036020526040902060020154600160a01b900460ff166008811115611c6357611c636138e1565b14611c6d57600080fd5b611c7633610a1c565b611c7f57600080fd5b6000828152600360208181526040808420601381018054336001600160a01b03199182161790915560028083018054600160a21b60ff60a01b19909116178155600486529387209585528554600181810188559688529490962082546015909502019384558482015494840194909455815494830180546001600160a01b0390961694861685178155915490949293600160a01b9182900460ff16936001600160a81b0319161790836008811115611d3957611d396138e1565b02179055506003828101805491830180546001600160a01b0319166001600160a01b039093169290921782556004808501805492939291850191611d7c90613ad6565b611d879291906134cc565b506002820181600201908054611d9c90613ad6565b611da79291906134cc565b506003820181600301908054611dbc90613ad6565b611dc79291906134cc565b506004820181600401908054611ddc90613ad6565b611de79291906134cc565b506005918201549101556009828101805491830180546001600160a01b0319166001600160a01b03909316929092178255600a808501805492939291850191611e2f90613ad6565b611e3a9291906134cc565b506002820181600201908054611e4f90613ad6565b611e5a9291906134cc565b505050600c820181600c016000820181600001908054611e7990613ad6565b611e849291906134cc565b5060018201548160010155600282015481600201556003820181600301908054611ead90613ad6565b611eb89291906134cc565b5050506010828101805491830180546001600160a01b0319166001600160a01b039093169290921782556011808501805492939291850191611ef990613ad6565b611f049291906134cc565b506002820181600201908054611f1990613ad6565b611f249291906134cc565b50505060138281015490820180546001600160a01b0319166001600160a01b039092169190911790556014808301805491830191611f6190613ad6565b611f6c9291906134cc565b50506040518381527ffd054e59d299873fab61a3c67d86d3a139b75dcd5cd82894d8983fc5e2669c829150602001610da1565b806007600082815260036020526040902060020154600160a01b900460ff166008811115611fcf57611fcf6138e1565b14611fd957600080fd5b6000828152600360205260409020601301546001600160a01b031633811461200057600080fd5b61200933610a1c565b61201257600080fd5b600083815260036020818152604080842060028082018054600160a31b60ff60a01b1933166001600160a81b031992831617178255600486529387209585528554600181810188559688529490962082546015909502019384558482015494840194909455845493830180546001600160a01b039095166001600160a01b0319861681178255955491959394600160a01b9283900460ff169491931617908360088111156120c2576120c26138e1565b02179055506003828101805491830180546001600160a01b0319166001600160a01b03909316929092178255600480850180549293929185019161210590613ad6565b6121109291906134cc565b50600282018160020190805461212590613ad6565b6121309291906134cc565b50600382018160030190805461214590613ad6565b6121509291906134cc565b50600482018160040190805461216590613ad6565b6121709291906134cc565b506005918201549101556009828101805491830180546001600160a01b0319166001600160a01b03909316929092178255600a8085018054929392918501916121b890613ad6565b6121c39291906134cc565b5060028201816002019080546121d890613ad6565b6121e39291906134cc565b505050600c820181600c01600082018160000190805461220290613ad6565b61220d9291906134cc565b506001820154816001015560028201548160020155600382018160030190805461223690613ad6565b6122419291906134cc565b5050506010828101805491830180546001600160a01b0319166001600160a01b03909316929092178255601180850180549293929185019161228290613ad6565b61228d9291906134cc565b5060028201816002019080546122a290613ad6565b6122ad9291906134cc565b50505060138281015490820180546001600160a01b0319166001600160a01b0390921691909117905560148083018054918301916122ea90613ad6565b6122f59291906134cc565b50506040518481527f8a746d5b91a9a334d1abbeee7d031aac6d5c59ea6e982ac06aef4346cce5749e91506020015b60405180910390a1505050565b6000828152600460205260408120805461234d90600190613b27565b8154811061235d5761235d613b11565b9060005260206000209060150201905081816014019080519060200190612385929190613448565b50505050565b6001600160a01b03811661239e57600080fd5b6123a78161123a565b156123b157600080fd5b6001600160a01b03166000908152600560205260409020805460ff19166001179055565b826005600082815260036020526040902060020154600160a01b900460ff166008811115612405576124056138e1565b1461240f57600080fd5b61241833612ed1565b61242157600080fd5b6000848152600360209081526040909120600281018054336001600160a01b031991821681179092556010830180549091169091179055845161246c92601190920191860190613448565b506000848152600360209081526040909120835161249292601290920191850190613448565b5060008481526003602081815260408084206002808201805460ff60a01b1916600360a11b178155600485529286209484528454600181810187559587529390952081546015909402019283558381015493830193909355805493820180546001600160a01b031981166001600160a01b03909616958617825591549394929360ff600160a01b91829004169391926001600160a81b03191690911790836008811115612541576125416138e1565b02179055506003828101805491830180546001600160a01b0319166001600160a01b03909316929092178255600480850180549293929185019161258490613ad6565b61258f9291906134cc565b5060028201816002019080546125a490613ad6565b6125af9291906134cc565b5060038201816003019080546125c490613ad6565b6125cf9291906134cc565b5060048201816004019080546125e490613ad6565b6125ef9291906134cc565b506005918201549101556009828101805491830180546001600160a01b0319166001600160a01b03909316929092178255600a80850180549293929185019161263790613ad6565b6126429291906134cc565b50600282018160020190805461265790613ad6565b6126629291906134cc565b505050600c820181600c01600082018160000190805461268190613ad6565b61268c9291906134cc565b50600182015481600101556002820154816002015560038201816003019080546126b590613ad6565b6126c09291906134cc565b5050506010828101805491830180546001600160a01b0319166001600160a01b03909316929092178255601180850180549293929185019161270190613ad6565b61270c9291906134cc565b50600282018160020190805461272190613ad6565b61272c9291906134cc565b50505060138281015490820180546001600160a01b0319166001600160a01b03909216919091179055601480830180549183019161276990613ad6565b6127749291906134cc565b50506040518581527fb6589947d486bf61c31a4e6d2e81d4d2c93e7832fdda27f2492009b4755c29ed91506020016119ac565b6000838152600360205260408120546060919082908190839082906127cb57600080fd5b600089815260036020908152604091829020825180840190935260078352661c1c9bd91d58dd60ca1b928201929092528951908a01207f36a4a183f82db747ab399ca476ab84cc3def6abe3ac63748d03b4584af38d0571415612838575060008981526003602052604090205b604080518082019091526007815266686973746f727960c81b6020918201528951908a01207f5cb4ee416d23b95cd5367c15d6b361ec02394b3d48d629418b0e5e7eda67585814156128b55760008a81526004602052604090208054899081106128a4576128a4613b11565b906000526020600020906015020190505b60108101546013820154600b8301805490926001600160a01b03908116926011860192601287019290911690601487019086906128f190613ad6565b80601f016020809104026020016040519081016040528092919081815260200182805461291d90613ad6565b801561296a5780601f1061293f5761010080835404028352916020019161296a565b820191906000526020600020905b81548152906001019060200180831161294d57829003601f168201915b5050505050955083805461297d90613ad6565b80601f01602080910402602001604051908101604052809291908181526020018280546129a990613ad6565b80156129f65780601f106129cb576101008083540402835291602001916129f6565b820191906000526020600020905b8154815290600101906020018083116129d957829003601f168201915b50505050509350828054612a0990613ad6565b80601f0160208091040260200160405190810160405280929190818152602001828054612a3590613ad6565b8015612a825780601f10612a5757610100808354040283529160200191612a82565b820191906000526020600020905b815481529060010190602001808311612a6557829003601f168201915b50505050509250808054612a9590613ad6565b80601f0160208091040260200160405190810160405280929190818152602001828054612ac190613ad6565b8015612b0e5780601f10612ae357610100808354040283529160200191612b0e565b820191906000526020600020905b815481529060010190602001808311612af157829003601f168201915b505050505090509650965096509650965096505093975093979195509350565b8060008082815260036020526040902060020154600160a01b900460ff166008811115612b5d57612b5d6138e1565b14612b6757600080fd5b612b7033612e98565b612b7957600080fd5b6000828152600360208181526040808420600981018054336001600160a01b03199182161790915560028083018054600160a01b60ff60a01b1990911681178255600487529488209686528654600181810189559789529590972083546015909602019485558583015495850195909555855494840180546001600160a01b03909616918616821781559554919593949183900460ff1693926001600160a81b03199092161790836008811115612c3257612c326138e1565b02179055506003828101805491830180546001600160a01b0319166001600160a01b039093169290921782556004808501805492939291850191612c7590613ad6565b612c809291906134cc565b506002820181600201908054612c9590613ad6565b612ca09291906134cc565b506003820181600301908054612cb590613ad6565b612cc09291906134cc565b506004820181600401908054612cd590613ad6565b612ce09291906134cc565b506005918201549101556009828101805491830180546001600160a01b0319166001600160a01b03909316929092178255600a808501805492939291850191612d2890613ad6565b612d339291906134cc565b506002820181600201908054612d4890613ad6565b612d539291906134cc565b505050600c820181600c016000820181600001908054612d7290613ad6565b612d7d9291906134cc565b5060018201548160010155600282015481600201556003820181600301908054612da690613ad6565b612db19291906134cc565b5050506010828101805491830180546001600160a01b0319166001600160a01b039093169290921782556011808501805492939291850191612df290613ad6565b612dfd9291906134cc565b506002820181600201908054612e1290613ad6565b612e1d9291906134cc565b50505060138281015490820180546001600160a01b0319166001600160a01b039092169190911790556014808301805491830191612e5a90613ad6565b612e659291906134cc565b50506040518381527f112c8adc962c1de46b0ae9499cd428dc90feb4c13a4df0c69d7e5e27ab34ae879150602001610da1565b60006001600160a01b038216612ead57600080fd5b506001600160a01b0316600090815260056020526040902054610100900460ff1690565b60006001600160a01b038216612ee657600080fd5b506001600160a01b031660009081526005602052604090205462010000900460ff1690565b80600460006001600054612f1f9190613b27565b81526020019081526020016000206000016001600460006001600054612f459190613b27565b8152602081019190915260400160002054612f609190613b27565b81548110612f7057612f70613b11565b90600052602060002090601502016014019080519060200190612f94929190613448565b5050565b6000818152600360205260409020600201546001600160a01b0316338114612fbf57600080fd5b6000828152600360205260409020600901546001600160a01b0316338114612fe657600080fd5b612fef33612e98565b612ff857600080fd5b60008381526003602081815260408084206002808201805460ff60a01b1916600560a01b178155600485529286209484528454600181810187559587529390952081546015909402019283558381015493830193909355805493820180546001600160a01b031981166001600160a01b03909616958617825591549394929360ff600160a01b91829004169391926001600160a81b031916909117908360088111156130a6576130a66138e1565b02179055506003828101805491830180546001600160a01b0319166001600160a01b0390931692909217825560048085018054929392918501916130e990613ad6565b6130f49291906134cc565b50600282018160020190805461310990613ad6565b6131149291906134cc565b50600382018160030190805461312990613ad6565b6131349291906134cc565b50600482018160040190805461314990613ad6565b6131549291906134cc565b506005918201549101556009828101805491830180546001600160a01b0319166001600160a01b03909316929092178255600a80850180549293929185019161319c90613ad6565b6131a79291906134cc565b5060028201816002019080546131bc90613ad6565b6131c79291906134cc565b505050600c820181600c0160008201816000019080546131e690613ad6565b6131f19291906134cc565b506001820154816001015560028201548160020155600382018160030190805461321a90613ad6565b6132259291906134cc565b5050506010828101805491830180546001600160a01b0319166001600160a01b03909316929092178255601180850180549293929185019161326690613ad6565b6132719291906134cc565b50600282018160020190805461328690613ad6565b6132919291906134cc565b50505060138281015490820180546001600160a01b0319166001600160a01b0390921691909117905560148083018054918301916132ce90613ad6565b6132d99291906134cc565b50506040518481527ff2452d569e5bc407d222a6bcad7d4bb8bac5fae64ce52fa183bd77e34e0cc1479150602001612324565b6001600160a01b03811661331f57600080fd5b61332881612ed1565b1561333257600080fd5b6001600160a01b03166000908152600560205260409020805462ff0000191662010000179055565b604080516101408101825260008082526020820181905291810182905290606082019081526020016133c46040518060c0016040528060006001600160a01b0316815260200160608152602001606081526020016060815260200160608152602001600081525090565b815260408051606080820183526000825260208281018290529282015291019081526020016134146040518060800160405280606081526020016000815260200160008152602001606081525090565b8152604080516060808201835260008252602082810182905292820152910190815260006020820152606060409091015290565b82805461345490613ad6565b90600052602060002090601f01602090048101928261347657600085556134bc565b82601f1061348f57805160ff19168380011785556134bc565b828001600101855582156134bc579182015b828111156134bc5782518255916020019190600101906134a1565b506134c8929150613547565b5090565b8280546134d890613ad6565b90600052602060002090601f0160209004810192826134fa57600085556134bc565b82601f1061350b57805485556134bc565b828001600101855582156134bc57600052602060002091601f016020900482015b828111156134bc57825482559160010191906001019061352c565b5b808211156134c85760008155600101613548565b634e487b7160e01b600052604160045260246000fd5b600082601f83011261358357600080fd5b813567ffffffffffffffff8082111561359e5761359e61355c565b604051601f8301601f19908116603f011681019082821181831017156135c6576135c661355c565b816040528381528660208588010111156135df57600080fd5b836020870160208301376000602085830101528094505050505092915050565b600080600080600080600080610100898b03121561361c57600080fd5b883567ffffffffffffffff8082111561363457600080fd5b6136408c838d01613572565b995060208b013591508082111561365657600080fd5b6136628c838d01613572565b985060408b013591508082111561367857600080fd5b6136848c838d01613572565b975060608b013591508082111561369a57600080fd5b6136a68c838d01613572565b965060808b01359150808211156136bc57600080fd5b6136c88c838d01613572565b955060a08b0135945060c08b0135935060e08b01359150808211156136ec57600080fd5b506136f98b828c01613572565b9150509295985092959890939650565b60006020828403121561371b57600080fd5b81356001600160a01b038116811461373257600080fd5b9392505050565b60006020828403121561374b57600080fd5b5035919050565b60008060006060848603121561376757600080fd5b83359250602084013567ffffffffffffffff8082111561378657600080fd5b61379287838801613572565b935060408601359150808211156137a857600080fd5b506137b586828701613572565b9150509250925092565b6000806000606084860312156137d457600080fd5b83359250602084013567ffffffffffffffff8111156137f257600080fd5b6137fe86828701613572565b925050604084013590509250925092565b6000815180845260005b8181101561383557602081850181015186830182015201613819565b81811115613847576000602083870101525b50601f01601f19169290920160200192915050565b888152602081018890526001600160a01b03878116604083015286166060820152610100608082018190526000906138968382018861380f565b905082810360a08401526138aa818761380f565b905082810360c08401526138be818661380f565b905082810360e08401526138d2818561380f565b9b9a5050505050505050505050565b634e487b7160e01b600052602160045260246000fd5b6009811061391557634e487b7160e01b600052602160045260246000fd5b9052565b60006101008a83528060208401526139338184018b61380f565b90508860408401528760608401528281036080840152613953818861380f565b905061396260a08401876138f7565b6001600160a01b03851660c084015282810360e08401526138d2818561380f565b6000806040838503121561399657600080fd5b82359150602083013567ffffffffffffffff8111156139b457600080fd5b6139c085828601613572565b9150509250929050565b60c0815260006139dd60c083018961380f565b6001600160a01b03888116602085015283820360408501526139ff828961380f565b91508382036060850152613a13828861380f565b908616608085015283810360a08501529050613a2f818561380f565b9998505050505050505050565b60208101613a4a82846138f7565b92915050565b600060208284031215613a6257600080fd5b813567ffffffffffffffff811115613a7957600080fd5b613a8584828501613572565b949350505050565b634e487b7160e01b600052601160045260246000fd5b6000600019821415613ab757613ab7613a8d565b5060010190565b60008219821115613ad157613ad1613a8d565b500190565b600181811c90821680613aea57607f821691505b60208210811415613b0b57634e487b7160e01b600052602260045260246000fd5b50919050565b634e487b7160e01b600052603260045260246000fd5b600082821015613b3957613b39613a8d565b50039056fea2646970667358221220701508d8be849c7beef556bc714590351d849353e54883345f89054dd348e49464736f6c634300080c0033",
  "immutableReferences": {},
  "source": "// SPDX-License-Identifier: MIT\r\npragma solidity ^0.8;\r\n\r\nimport \"./Structure.sol\";\r\n\r\ncontract SupplyChain {\r\n    event ManufacturerAdded(address indexed _account);\r\n\r\n    //product code\r\n    uint256 public uid;\r\n    uint256 sku;\r\n\r\n    address owner;\r\n\r\n    mapping(uint256 => Structure.Product) products;\r\n    mapping(uint256 => Structure.ProductHistory) productHistory;\r\n    mapping(address => Structure.Roles) roles;\r\n\r\n    function hasManufacturerRole(address _account) public view returns (bool) {\r\n        require(_account != address(0));\r\n        return roles[_account].Manufacturer;\r\n    }\r\n\r\n    function addManufacturerRole(address _account) public {\r\n        require(_account != address(0));\r\n        require(!hasManufacturerRole(_account));\r\n\r\n        roles[_account].Manufacturer = true;\r\n    }\r\n\r\n    function hasThirdPartyRole(address _account) public view returns (bool) {\r\n        require(_account != address(0));\r\n        return roles[_account].ThirdParty;\r\n    }\r\n\r\n    function addThirdPartyRole(address _account) public {\r\n        require(_account != address(0));\r\n        require(!hasThirdPartyRole(_account));\r\n\r\n        roles[_account].ThirdParty = true;\r\n    }\r\n\r\n    function hasDeliveryHubRole(address _account) public view returns (bool) {\r\n        require(_account != address(0));\r\n        return roles[_account].DeliveryHub;\r\n    }\r\n\r\n    function addDeliveryHubRole(address _account) public {\r\n        require(_account != address(0));\r\n        require(!hasDeliveryHubRole(_account));\r\n\r\n        roles[_account].DeliveryHub = true;\r\n    }\r\n\r\n    function hasCustomerRole(address _account) public view returns (bool) {\r\n        require(_account != address(0));\r\n        return roles[_account].Customer;\r\n    }\r\n\r\n    function addCustomerRole(address _account) public {\r\n        require(_account != address(0));\r\n        require(!hasDeliveryHubRole(_account));\r\n\r\n        roles[_account].Customer = true;\r\n    }\r\n\r\n    constructor() payable {\r\n        owner = msg.sender;\r\n        sku = 1;\r\n        uid = 1;\r\n    }\r\n\r\n    event Manufactured(uint256 uid);\r\n    event PurchasedByThirdParty(uint256 uid);\r\n    event ShippedByManufacturer(uint256 uid);\r\n    event ReceivedByThirdParty(uint256 uid);\r\n    event PurchasedByCustomer(uint256 uid);\r\n    event ShippedByThirdParty(uint256 uid);\r\n    event ReceivedByDeliveryHub(uint256 uid);\r\n    event ShippedByDeliveryHub(uint256 uid);\r\n    event ReceivedByCustomer(uint256 uid);\r\n\r\n    modifier verifyAddress(address add) {\r\n        require(msg.sender == add);\r\n        _;\r\n    }\r\n\r\n    modifier manufactured(uint256 _uid) {\r\n        require(products[_uid].productState == Structure.State.Manufactured);\r\n        _;\r\n    }\r\n\r\n    modifier shippedByManufacturer(uint256 _uid) {\r\n        require(\r\n            products[_uid].productState == Structure.State.ShippedByManufacturer\r\n        );\r\n        _;\r\n    }\r\n\r\n    modifier receivedByThirdParty(uint256 _uid) {\r\n        require(\r\n            products[_uid].productState == Structure.State.ReceivedByThirdParty\r\n        );\r\n        _;\r\n    }\r\n\r\n    modifier purchasedByCustomer(uint256 _uid) {\r\n        require(\r\n            products[_uid].productState == Structure.State.PurchasedByCustomer\r\n        );\r\n        _;\r\n    }\r\n\r\n    modifier shippedByThirdParty(uint256 _uid) {\r\n        require(\r\n            products[_uid].productState == Structure.State.ShippedByThirdParty\r\n        );\r\n        _;\r\n    }\r\n\r\n    modifier receivedByDeliveryHub(uint256 _uid) {\r\n        require(\r\n            products[_uid].productState == Structure.State.ReceivedByDeliveryHub\r\n        );\r\n        _;\r\n    }\r\n\r\n    modifier shippedByDeliveryHub(uint256 _uid) {\r\n        require(\r\n            products[_uid].productState == Structure.State.ShippedByDeliveryHub\r\n        );\r\n        _;\r\n    }\r\n\r\n    modifier receivedByCustomer(uint256 _uid) {\r\n        require(\r\n            products[_uid].productState == Structure.State.ReceivedByCustomer\r\n        );\r\n        _;\r\n    }\r\n\r\n    function manufactureEmptyInitialize(Structure.Product memory product)\r\n        internal\r\n        pure\r\n    {\r\n        address thirdParty;\r\n        string memory transaction;\r\n        string memory thirdPartyLongitude;\r\n        string memory thirdPartyLatitude;\r\n\r\n        address deliveryHub;\r\n        string memory deliveryHubLongitude;\r\n        string memory deliveryHubLatitude;\r\n        address customer;\r\n\r\n        product.thirdparty.thirdParty = thirdParty;\r\n        product.thirdparty.thirdPartyLongitude = thirdPartyLongitude;\r\n        product.thirdparty.thirdPartyLatitude = thirdPartyLatitude;\r\n\r\n        product.deliveryhub.deliveryHub = deliveryHub;\r\n        product.deliveryhub.deliveryHubLongitude = deliveryHubLongitude;\r\n        product.deliveryhub.deliveryHubLatitude = deliveryHubLatitude;\r\n\r\n        product.customer = customer;\r\n        product.transaction = transaction;\r\n    }\r\n\r\n    function manufactureProductInitialize(\r\n        Structure.Product memory product,\r\n        string memory productName,\r\n        uint256 productCode,\r\n        uint256 productPrice,\r\n        string memory productCategory\r\n    ) internal pure {\r\n        product.productdet.productName = productName;\r\n        product.productdet.productCode = productCode;\r\n        product.productdet.productPrice = productPrice;\r\n        product.productdet.productCategory = productCategory;\r\n    }\r\n\r\n    ///@dev STEP 1 : Manufactured a product.\r\n    function manufactureProduct(\r\n        string memory manufacturerName,\r\n        string memory manufacturerDetails,\r\n        string memory manufacturerLongitude,\r\n        string memory manufacturerLatitude,\r\n        string memory productName,\r\n        uint256 productCode,\r\n        uint256 productPrice,\r\n        string memory productCategory\r\n    ) public {\r\n        require(hasManufacturerRole(msg.sender));\r\n        uint256 _uid = uid;\r\n        Structure.Product memory product;\r\n        product.sku = sku;\r\n        product.uid = _uid;\r\n        product.manufacturer.manufacturerName = manufacturerName;\r\n        product.manufacturer.manufacturerDetails = manufacturerDetails;\r\n        product.manufacturer.manufacturerLongitude = manufacturerLongitude;\r\n        product.manufacturer.manufacturerLatitude = manufacturerLatitude;\r\n        product.manufacturer.manufacturedDate = block.timestamp;\r\n\r\n        product.owner = msg.sender;\r\n        product.manufacturer.manufacturer = msg.sender;\r\n\r\n        manufactureEmptyInitialize(product);\r\n\r\n        product.productState = Structure.State.Manufactured;\r\n\r\n        manufactureProductInitialize(\r\n            product,\r\n            productName,\r\n            productCode,\r\n            productPrice,\r\n            productCategory\r\n        );\r\n\r\n        products[_uid] = product;\r\n\r\n        productHistory[_uid].history.push(product);\r\n\r\n        sku++;\r\n        uid = uid + 1;\r\n\r\n        emit Manufactured(_uid);\r\n    }\r\n\r\n    ///@dev STEP 2 : Purchase of manufactured product by Third Party.\r\n    function purchaseByThirdParty(uint256 _uid) public manufactured(_uid) {\r\n        require(hasThirdPartyRole(msg.sender));\r\n        products[_uid].thirdparty.thirdParty = msg.sender;\r\n        products[_uid].productState = Structure.State.PurchasedByThirdParty;\r\n        productHistory[_uid].history.push(products[_uid]);\r\n\r\n        emit PurchasedByThirdParty(_uid);\r\n    }\r\n\r\n    ///@dev STEP 3 : Shipping of purchased product to Third Party.\r\n    function shipToThirdParty(uint256 _uid)\r\n        public\r\n        verifyAddress(products[_uid].manufacturer.manufacturer)\r\n    {\r\n        require(hasManufacturerRole(msg.sender));\r\n        products[_uid].productState = Structure.State.ShippedByManufacturer;\r\n        productHistory[_uid].history.push(products[_uid]);\r\n\r\n        emit ShippedByManufacturer(_uid);\r\n    }\r\n\r\n    ///@dev STEP 4 : Received the purchased product shipped by Manufacturer.\r\n    function receiveByThirdParty(\r\n        uint256 _uid,\r\n        string memory thirdPartyLongitude,\r\n        string memory thirdPartyLatitude\r\n    )\r\n        public\r\n        shippedByManufacturer(_uid)\r\n        verifyAddress(products[_uid].thirdparty.thirdParty)\r\n    {\r\n        require(hasThirdPartyRole(msg.sender));\r\n        products[_uid].owner = msg.sender;\r\n        products[_uid].thirdparty.thirdPartyLongitude = thirdPartyLongitude;\r\n        products[_uid].thirdparty.thirdPartyLatitude = thirdPartyLatitude;\r\n        products[_uid].productState = Structure.State.ReceivedByThirdParty;\r\n        productHistory[_uid].history.push(products[_uid]);\r\n\r\n        emit ReceivedByThirdParty(_uid);\r\n    }\r\n\r\n    ///@dev STEP 5 : Purchase of a product at third party by Customer.\r\n    function purchaseByCustomer(uint256 _uid)\r\n        public\r\n        receivedByThirdParty(_uid)\r\n    {\r\n        require(hasCustomerRole(msg.sender));\r\n        products[_uid].customer = msg.sender;\r\n        products[_uid].productState = Structure.State.PurchasedByCustomer;\r\n        productHistory[_uid].history.push(products[_uid]);\r\n\r\n        emit PurchasedByCustomer(_uid);\r\n    }\r\n\r\n    ///@dev STEP 7 : Shipping of product by third party purchased by customer.\r\n    function shipByThirdParty(uint256 _uid)\r\n        public\r\n        verifyAddress(products[_uid].owner)\r\n        verifyAddress(products[_uid].thirdparty.thirdParty)\r\n    {\r\n        require(hasThirdPartyRole(msg.sender));\r\n        products[_uid].productState = Structure.State.ShippedByThirdParty;\r\n        productHistory[_uid].history.push(products[_uid]);\r\n\r\n        emit ShippedByThirdParty(_uid);\r\n    }\r\n\r\n    ///@dev STEP 8 : Receiveing of product by delivery hub purchased by customer.\r\n    function receiveByDeliveryHub(\r\n        uint256 _uid,\r\n        string memory deliveryHubLongitude,\r\n        string memory deliveryHubLatitude\r\n    ) public shippedByThirdParty(_uid) {\r\n        require(hasDeliveryHubRole(msg.sender));\r\n        products[_uid].owner = msg.sender;\r\n        products[_uid].deliveryhub.deliveryHub = msg.sender;\r\n        products[_uid].deliveryhub.deliveryHubLongitude = deliveryHubLongitude;\r\n        products[_uid].deliveryhub.deliveryHubLatitude = deliveryHubLatitude;\r\n        products[_uid].productState = Structure.State.ReceivedByDeliveryHub;\r\n        productHistory[_uid].history.push(products[_uid]);\r\n\r\n        emit ReceivedByDeliveryHub(_uid);\r\n    }\r\n\r\n    ///@dev STEP 9 : Shipping of product by delivery hub purchased by customer.\r\n    function shipByDeliveryHub(uint256 _uid)\r\n        public\r\n        receivedByDeliveryHub(_uid)\r\n        verifyAddress(products[_uid].owner)\r\n        verifyAddress(products[_uid].deliveryhub.deliveryHub)\r\n    {\r\n        require(hasDeliveryHubRole(msg.sender));\r\n        products[_uid].productState = Structure.State.ShippedByDeliveryHub;\r\n        productHistory[_uid].history.push(products[_uid]);\r\n\r\n        emit ShippedByDeliveryHub(_uid);\r\n    }\r\n\r\n    ///@dev STEP 10 : Shipping of product by delivery hub purchased by customer.\r\n    function receiveByCustomer(uint256 _uid)\r\n        public\r\n        shippedByDeliveryHub(_uid)\r\n        verifyAddress(products[_uid].customer)\r\n    {\r\n        require(hasCustomerRole(msg.sender));\r\n        products[_uid].owner = msg.sender;\r\n        products[_uid].productState = Structure.State.ReceivedByCustomer;\r\n        productHistory[_uid].history.push(products[_uid]);\r\n\r\n        emit ReceivedByCustomer(_uid);\r\n    }\r\n\r\n    ///@dev Fetch product\r\n    function fetchProductPart1(\r\n        uint256 _uid,\r\n        string memory _type,\r\n        uint256 i\r\n    )\r\n        public\r\n        view\r\n        returns (\r\n            uint256,\r\n            uint256,\r\n            address,\r\n            address,\r\n            string memory,\r\n            string memory,\r\n            string memory,\r\n            string memory\r\n        )\r\n    {\r\n        require(products[_uid].uid != 0);\r\n        Structure.Product storage product = products[_uid];\r\n        if (keccak256(bytes(_type)) == keccak256(bytes(\"product\"))) {\r\n            product = products[_uid];\r\n        }\r\n        if (keccak256(bytes(_type)) == keccak256(bytes(\"history\"))) {\r\n            product = productHistory[_uid].history[i];\r\n        }\r\n        return (\r\n            product.uid,\r\n            product.sku,\r\n            product.owner,\r\n            product.manufacturer.manufacturer,\r\n            product.manufacturer.manufacturerName,\r\n            product.manufacturer.manufacturerDetails,\r\n            product.manufacturer.manufacturerLongitude,\r\n            product.manufacturer.manufacturerLatitude\r\n        );\r\n    }\r\n\r\n    ///@dev Fetch product\r\n    function fetchProductPart2(\r\n        uint256 _uid,\r\n        string memory _type,\r\n        uint256 i\r\n    )\r\n        public\r\n        view\r\n        returns (\r\n            uint256,\r\n            string memory,\r\n            uint256,\r\n            uint256,\r\n            string memory,\r\n            Structure.State,\r\n            address,\r\n            string memory\r\n        )\r\n    {\r\n        require(products[_uid].uid != 0);\r\n        Structure.Product storage product = products[_uid];\r\n        if (keccak256(bytes(_type)) == keccak256(bytes(\"product\"))) {\r\n            product = products[_uid];\r\n        }\r\n        if (keccak256(bytes(_type)) == keccak256(bytes(\"history\"))) {\r\n            product = productHistory[_uid].history[i];\r\n        }\r\n        return (\r\n            product.manufacturer.manufacturedDate,\r\n            product.productdet.productName,\r\n            product.productdet.productCode,\r\n            product.productdet.productPrice,\r\n            product.productdet.productCategory,\r\n            product.productState,\r\n            product.thirdparty.thirdParty,\r\n            product.thirdparty.thirdPartyLongitude\r\n        );\r\n    }\r\n\r\n    function fetchProductPart3(\r\n        uint256 _uid,\r\n        string memory _type,\r\n        uint256 i\r\n    )\r\n        public\r\n        view\r\n        returns (\r\n            string memory,\r\n            address,\r\n            string memory,\r\n            string memory,\r\n            address,\r\n            string memory\r\n        )\r\n    {\r\n        require(products[_uid].uid != 0);\r\n        Structure.Product storage product = products[_uid];\r\n        if (keccak256(bytes(_type)) == keccak256(bytes(\"product\"))) {\r\n            product = products[_uid];\r\n        }\r\n        if (keccak256(bytes(_type)) == keccak256(bytes(\"history\"))) {\r\n            product = productHistory[_uid].history[i];\r\n        }\r\n        return (\r\n            product.thirdparty.thirdPartyLatitude,\r\n            product.deliveryhub.deliveryHub,\r\n            product.deliveryhub.deliveryHubLongitude,\r\n            product.deliveryhub.deliveryHubLatitude,\r\n            product.customer,\r\n            product.transaction\r\n        );\r\n    }\r\n\r\n    function fetchProductCount() public view returns (uint256) {\r\n        return uid;\r\n    }\r\n\r\n    function fetchProductHistoryLength(uint256 _uid)\r\n        public\r\n        view\r\n        returns (uint256)\r\n    {\r\n        return productHistory[_uid].history.length;\r\n    }\r\n\r\n    function fetchProductState(uint256 _uid)\r\n        public\r\n        view\r\n        returns (Structure.State)\r\n    {\r\n        return products[_uid].productState;\r\n    }\r\n\r\n    function setTransactionHashOnManufacture(string memory tran) public {\r\n        productHistory[uid - 1].history[\r\n            productHistory[uid - 1].history.length - 1\r\n        ]\r\n            .transaction = tran;\r\n    }\r\n\r\n    function setTransactionHash(uint256 _uid, string memory tran) public {\r\n        Structure.Product storage p =\r\n            productHistory[_uid].history[\r\n                productHistory[_uid].history.length - 1\r\n            ];\r\n        p.transaction = tran;\r\n    }\r\n}\r\n",
  "sourcePath": "D:\\supply-chain-mgmt\\contracts\\SupplyChain.sol",
  "compiler": {
    "name": "solc",
    "version": "0.8.12+commit.f00d7308.Emscripten.clang"
  },
  "schemaVersion": "3.4.3",
  "updatedAt": "2022-05-05T12:50:12.380Z",
  "networkType": "ethereum",
  "devdoc": {
    "kind": "dev",
    "methods": {
      "fetchProductPart1(uint256,string,uint256)": {
        "details": "Fetch product"
      },
      "fetchProductPart2(uint256,string,uint256)": {
        "details": "Fetch product"
      },
      "manufactureProduct(string,string,string,string,string,uint256,uint256,string)": {
        "details": "STEP 1 : Manufactured a product."
      },
      "purchaseByCustomer(uint256)": {
        "details": "STEP 5 : Purchase of a product at third party by Customer."
      },
      "purchaseByThirdParty(uint256)": {
        "details": "STEP 2 : Purchase of manufactured product by Third Party."
      },
      "receiveByCustomer(uint256)": {
        "details": "STEP 10 : Shipping of product by delivery hub purchased by customer."
      },
      "receiveByDeliveryHub(uint256,string,string)": {
        "details": "STEP 8 : Receiveing of product by delivery hub purchased by customer."
      },
      "receiveByThirdParty(uint256,string,string)": {
        "details": "STEP 4 : Received the purchased product shipped by Manufacturer."
      },
      "shipByDeliveryHub(uint256)": {
        "details": "STEP 9 : Shipping of product by delivery hub purchased by customer."
      },
      "shipByThirdParty(uint256)": {
        "details": "STEP 7 : Shipping of product by third party purchased by customer."
      },
      "shipToThirdParty(uint256)": {
        "details": "STEP 3 : Shipping of purchased product to Third Party."
      }
    },
    "version": 1
  },
  "userdoc": {
    "kind": "user",
    "methods": {},
    "version": 1
  }
}